{
  "contractName": "IWETH",
  "abi": [
    {
      "inputs": [],
      "name": "deposit",
      "outputs": [],
      "stateMutability": "payable",
      "type": "function"
    },
    {
      "inputs": [
        {
          "internalType": "address",
          "name": "to",
          "type": "address"
        },
        {
          "internalType": "uint256",
          "name": "value",
          "type": "uint256"
        }
      ],
      "name": "transfer",
      "outputs": [
        {
          "internalType": "bool",
          "name": "",
          "type": "bool"
        }
      ],
      "stateMutability": "nonpayable",
      "type": "function"
    },
    {
      "inputs": [
        {
          "internalType": "uint256",
          "name": "",
          "type": "uint256"
        }
      ],
      "name": "withdraw",
      "outputs": [],
      "stateMutability": "nonpayable",
      "type": "function"
    }
  ],
  "bytecode": "0x608060405234801561001057600080fd5b50610228806100206000396000f3fe6080604052600436106100345760003560e01c80632e1a7d4d14610039578063a9059cbb14610062578063d0e30db01461009f575b600080fd5b34801561004557600080fd5b50610060600480360381019061005b9190610120565b6100a9565b005b34801561006e57600080fd5b50610089600480360381019061008491906100e0565b6100ac565b604051610096919061015c565b60405180910390f35b6100a76100b4565b005b50565b600092915050565b565b6000813590506100c5816101c4565b92915050565b6000813590506100da816101db565b92915050565b600080604083850312156100f7576100f66101bf565b5b6000610105858286016100b6565b9250506020610116858286016100cb565b9150509250929050565b600060208284031215610136576101356101bf565b5b6000610144848285016100cb565b91505092915050565b61015681610189565b82525050565b6000602082019050610171600083018461014d565b92915050565b600061018282610195565b9050919050565b60008115159050919050565b600073ffffffffffffffffffffffffffffffffffffffff82169050919050565b6000819050919050565b600080fd5b6101cd81610177565b81146101d857600080fd5b50565b6101e4816101b5565b81146101ef57600080fd5b5056fea26469706673582212209912aaa7be3680e98e16510f6ef32c8fb44f3a728278b272522b18c5c48708f864736f6c63430008070033",
  "immutableReferences": {},
  "source": "// SPDX-License-Identifier: MIT\n// OpenZeppelin Contracts v4.3.2 (token/ERC20/ERC20.sol)\npragma solidity ^0.8.0;\n\n\ncontract IWETH {\n    function deposit() external payable{}\n    function transfer(address to, uint value) external returns (bool){}\n    function withdraw(uint) external{}\n}",
  "sourcePath": "/home/vwegba/Documents/LotteryToken/contracts/IPancakeSwap/WETH.sol",
  "compiler": {
    "name": "solc",
    "version": "0.8.7+commit.e28d00a7.Emscripten.clang"
  },
  "schemaVersion": "3.4.1",
  "updatedAt": "2022-01-03T04:19:13.556Z",
  "devdoc": {
    "kind": "dev",
    "methods": {},
    "version": 1
  },
  "userdoc": {
    "kind": "user",
    "methods": {},
    "version": 1
  }
}