{
  "contractName": "LotteryToken",
  "abi": [
    {
      "inputs": [
        {
          "internalType": "address",
          "name": "account",
          "type": "address"
        },
        {
          "internalType": "uint256",
          "name": "amount",
          "type": "uint256"
        },
        {
          "internalType": "uint256",
          "name": "timestamp_",
          "type": "uint256"
        }
      ],
      "stateMutability": "nonpayable",
      "type": "constructor"
    },
    {
      "anonymous": false,
      "inputs": [
        {
          "indexed": true,
          "internalType": "address",
          "name": "owner",
          "type": "address"
        },
        {
          "indexed": true,
          "internalType": "address",
          "name": "spender",
          "type": "address"
        },
        {
          "indexed": false,
          "internalType": "uint256",
          "name": "value",
          "type": "uint256"
        }
      ],
      "name": "Approval",
      "type": "event"
    },
    {
      "anonymous": false,
      "inputs": [
        {
          "indexed": true,
          "internalType": "address",
          "name": "buyer",
          "type": "address"
        }
      ],
      "name": "BoughtFromPancakeSwap",
      "type": "event"
    },
    {
      "anonymous": false,
      "inputs": [
        {
          "indexed": true,
          "internalType": "address",
          "name": "from",
          "type": "address"
        },
        {
          "indexed": true,
          "internalType": "address",
          "name": "to",
          "type": "address"
        },
        {
          "indexed": false,
          "internalType": "uint256",
          "name": "value",
          "type": "uint256"
        }
      ],
      "name": "Transfer",
      "type": "event"
    },
    {
      "anonymous": false,
      "inputs": [
        {
          "indexed": true,
          "internalType": "address",
          "name": "sender",
          "type": "address"
        },
        {
          "indexed": true,
          "internalType": "address",
          "name": "msgSend",
          "type": "address"
        },
        {
          "indexed": false,
          "internalType": "uint256",
          "name": "balance",
          "type": "uint256"
        },
        {
          "indexed": false,
          "internalType": "uint256",
          "name": "number",
          "type": "uint256"
        }
      ],
      "name": "theTran",
      "type": "event"
    },
    {
      "anonymous": false,
      "inputs": [
        {
          "indexed": true,
          "internalType": "address",
          "name": "sender",
          "type": "address"
        },
        {
          "indexed": true,
          "internalType": "address",
          "name": "msgSend",
          "type": "address"
        },
        {
          "indexed": false,
          "internalType": "uint256",
          "name": "number",
          "type": "uint256"
        }
      ],
      "name": "theTranFrm",
      "type": "event"
    },
    {
      "inputs": [],
      "name": "BURN_FEE",
      "outputs": [
        {
          "internalType": "uint256",
          "name": "",
          "type": "uint256"
        }
      ],
      "stateMutability": "view",
      "type": "function"
    },
    {
      "inputs": [],
      "name": "TAX_FEE",
      "outputs": [
        {
          "internalType": "uint256",
          "name": "",
          "type": "uint256"
        }
      ],
      "stateMutability": "view",
      "type": "function"
    },
    {
      "inputs": [
        {
          "internalType": "address",
          "name": "",
          "type": "address"
        },
        {
          "internalType": "address",
          "name": "",
          "type": "address"
        }
      ],
      "name": "_allowances",
      "outputs": [
        {
          "internalType": "uint256",
          "name": "",
          "type": "uint256"
        }
      ],
      "stateMutability": "view",
      "type": "function"
    },
    {
      "inputs": [],
      "name": "_name",
      "outputs": [
        {
          "internalType": "string",
          "name": "",
          "type": "string"
        }
      ],
      "stateMutability": "view",
      "type": "function"
    },
    {
      "inputs": [],
      "name": "_symbol",
      "outputs": [
        {
          "internalType": "string",
          "name": "",
          "type": "string"
        }
      ],
      "stateMutability": "view",
      "type": "function"
    },
    {
      "inputs": [
        {
          "internalType": "address",
          "name": "",
          "type": "address"
        }
      ],
      "name": "addLiquidity",
      "outputs": [
        {
          "internalType": "bool",
          "name": "",
          "type": "bool"
        }
      ],
      "stateMutability": "view",
      "type": "function"
    },
    {
      "inputs": [
        {
          "internalType": "address",
          "name": "",
          "type": "address"
        }
      ],
      "name": "excludeOwnerFromTax",
      "outputs": [
        {
          "internalType": "bool",
          "name": "",
          "type": "bool"
        }
      ],
      "stateMutability": "view",
      "type": "function"
    },
    {
      "inputs": [
        {
          "internalType": "uint256",
          "name": "",
          "type": "uint256"
        }
      ],
      "name": "holders",
      "outputs": [
        {
          "internalType": "address",
          "name": "",
          "type": "address"
        }
      ],
      "stateMutability": "view",
      "type": "function"
    },
    {
      "inputs": [
        {
          "internalType": "address",
          "name": "",
          "type": "address"
        }
      ],
      "name": "numberReferred",
      "outputs": [
        {
          "internalType": "uint256",
          "name": "",
          "type": "uint256"
        }
      ],
      "stateMutability": "view",
      "type": "function"
    },
    {
      "inputs": [],
      "name": "ownerAddr",
      "outputs": [
        {
          "internalType": "address",
          "name": "",
          "type": "address"
        }
      ],
      "stateMutability": "view",
      "type": "function"
    },
    {
      "inputs": [
        {
          "internalType": "address",
          "name": "",
          "type": "address"
        }
      ],
      "name": "referrence",
      "outputs": [
        {
          "internalType": "address",
          "name": "",
          "type": "address"
        }
      ],
      "stateMutability": "view",
      "type": "function"
    },
    {
      "inputs": [
        {
          "internalType": "address",
          "name": "",
          "type": "address"
        }
      ],
      "name": "swappedFromPancakeSwap",
      "outputs": [
        {
          "internalType": "bool",
          "name": "",
          "type": "bool"
        }
      ],
      "stateMutability": "view",
      "type": "function"
    },
    {
      "stateMutability": "payable",
      "type": "receive"
    },
    {
      "inputs": [],
      "name": "name",
      "outputs": [
        {
          "internalType": "string",
          "name": "",
          "type": "string"
        }
      ],
      "stateMutability": "view",
      "type": "function"
    },
    {
      "inputs": [],
      "name": "symbol",
      "outputs": [
        {
          "internalType": "string",
          "name": "",
          "type": "string"
        }
      ],
      "stateMutability": "view",
      "type": "function"
    },
    {
      "inputs": [],
      "name": "decimals",
      "outputs": [
        {
          "internalType": "uint8",
          "name": "",
          "type": "uint8"
        }
      ],
      "stateMutability": "view",
      "type": "function"
    },
    {
      "inputs": [],
      "name": "totalSupply",
      "outputs": [
        {
          "internalType": "uint256",
          "name": "",
          "type": "uint256"
        }
      ],
      "stateMutability": "view",
      "type": "function"
    },
    {
      "inputs": [
        {
          "internalType": "address",
          "name": "account",
          "type": "address"
        }
      ],
      "name": "balanceOf",
      "outputs": [
        {
          "internalType": "uint256",
          "name": "",
          "type": "uint256"
        }
      ],
      "stateMutability": "view",
      "type": "function"
    },
    {
      "inputs": [
        {
          "internalType": "uint256",
          "name": "_amount",
          "type": "uint256"
        }
      ],
      "name": "setInitialLiquidity",
      "outputs": [],
      "stateMutability": "nonpayable",
      "type": "function"
    },
    {
      "inputs": [
        {
          "internalType": "uint256",
          "name": "Tax",
          "type": "uint256"
        },
        {
          "internalType": "uint256",
          "name": "Burn",
          "type": "uint256"
        }
      ],
      "name": "setTaxtBurn",
      "outputs": [],
      "stateMutability": "nonpayable",
      "type": "function"
    },
    {
      "inputs": [
        {
          "internalType": "address",
          "name": "newOwner_",
          "type": "address"
        }
      ],
      "name": "addAsOwner",
      "outputs": [
        {
          "internalType": "bool",
          "name": "",
          "type": "bool"
        }
      ],
      "stateMutability": "nonpayable",
      "type": "function"
    },
    {
      "inputs": [
        {
          "internalType": "uint256",
          "name": "amount",
          "type": "uint256"
        }
      ],
      "name": "mintToken",
      "outputs": [],
      "stateMutability": "nonpayable",
      "type": "function"
    },
    {
      "inputs": [
        {
          "internalType": "uint256",
          "name": "amount",
          "type": "uint256"
        }
      ],
      "name": "burnToken",
      "outputs": [],
      "stateMutability": "nonpayable",
      "type": "function"
    },
    {
      "inputs": [],
      "name": "getWETHBalance",
      "outputs": [
        {
          "internalType": "uint256",
          "name": "",
          "type": "uint256"
        }
      ],
      "stateMutability": "view",
      "type": "function"
    },
    {
      "inputs": [
        {
          "internalType": "address",
          "name": "recipient",
          "type": "address"
        },
        {
          "internalType": "uint256",
          "name": "amount",
          "type": "uint256"
        }
      ],
      "name": "transfer",
      "outputs": [
        {
          "internalType": "bool",
          "name": "",
          "type": "bool"
        }
      ],
      "stateMutability": "nonpayable",
      "type": "function"
    },
    {
      "inputs": [
        {
          "internalType": "address",
          "name": "owner",
          "type": "address"
        },
        {
          "internalType": "address",
          "name": "spender",
          "type": "address"
        }
      ],
      "name": "allowance",
      "outputs": [
        {
          "internalType": "uint256",
          "name": "",
          "type": "uint256"
        }
      ],
      "stateMutability": "view",
      "type": "function"
    },
    {
      "inputs": [
        {
          "internalType": "address",
          "name": "spender",
          "type": "address"
        },
        {
          "internalType": "uint256",
          "name": "amount",
          "type": "uint256"
        }
      ],
      "name": "approve",
      "outputs": [
        {
          "internalType": "bool",
          "name": "",
          "type": "bool"
        }
      ],
      "stateMutability": "nonpayable",
      "type": "function"
    },
    {
      "inputs": [
        {
          "internalType": "address",
          "name": "_tokenIn",
          "type": "address"
        },
        {
          "internalType": "address",
          "name": "_tokenOut",
          "type": "address"
        }
      ],
      "name": "getTokenPair",
      "outputs": [
        {
          "internalType": "address",
          "name": "",
          "type": "address"
        }
      ],
      "stateMutability": "view",
      "type": "function"
    },
    {
      "inputs": [
        {
          "internalType": "address",
          "name": "_tokenIn",
          "type": "address"
        }
      ],
      "name": "getBalance",
      "outputs": [
        {
          "internalType": "uint256",
          "name": "",
          "type": "uint256"
        }
      ],
      "stateMutability": "view",
      "type": "function"
    },
    {
      "inputs": [
        {
          "internalType": "address",
          "name": "sender",
          "type": "address"
        },
        {
          "internalType": "address",
          "name": "recipient",
          "type": "address"
        },
        {
          "internalType": "uint256",
          "name": "amount",
          "type": "uint256"
        }
      ],
      "name": "transferFrom",
      "outputs": [
        {
          "internalType": "bool",
          "name": "",
          "type": "bool"
        }
      ],
      "stateMutability": "nonpayable",
      "type": "function"
    },
    {
      "inputs": [
        {
          "internalType": "address",
          "name": "spender",
          "type": "address"
        },
        {
          "internalType": "uint256",
          "name": "addedValue",
          "type": "uint256"
        }
      ],
      "name": "increaseAllowance",
      "outputs": [
        {
          "internalType": "bool",
          "name": "",
          "type": "bool"
        }
      ],
      "stateMutability": "nonpayable",
      "type": "function"
    },
    {
      "inputs": [
        {
          "internalType": "address",
          "name": "spender",
          "type": "address"
        },
        {
          "internalType": "uint256",
          "name": "subtractedValue",
          "type": "uint256"
        }
      ],
      "name": "decreaseAllowance",
      "outputs": [
        {
          "internalType": "bool",
          "name": "",
          "type": "bool"
        }
      ],
      "stateMutability": "nonpayable",
      "type": "function"
    },
    {
      "inputs": [
        {
          "internalType": "uint256",
          "name": "_amountIn",
          "type": "uint256"
        },
        {
          "internalType": "address",
          "name": "_tokenIn",
          "type": "address"
        },
        {
          "internalType": "address",
          "name": "_tokenOut",
          "type": "address"
        },
        {
          "internalType": "address",
          "name": "_to",
          "type": "address"
        }
      ],
      "name": "swapAndLiquidateToken",
      "outputs": [],
      "stateMutability": "nonpayable",
      "type": "function"
    }
  ],
  "bytecode": "0x60a06040526002600155600280556000600460006101000a81548160ff0219169083151502179055506000600460016101000a81548160ff0219169083151502179055506001600d553480156200005557600080fd5b50604051620041623803806200416283398181016040528101906200007b9190620002d2565b600073ffffffffffffffffffffffffffffffffffffffff168373ffffffffffffffffffffffffffffffffffffffff161415620000ee576040517f08c379a0000000000000000000000000000000000000000000000000000000008152600401620000e59062000366565b60405180910390fd5b806080818152505033600460026101000a81548173ffffffffffffffffffffffffffffffffffffffff021916908373ffffffffffffffffffffffffffffffffffffffff1602179055506001600860003373ffffffffffffffffffffffffffffffffffffffff1673ffffffffffffffffffffffffffffffffffffffff16815260200190815260200160002060006101000a81548160ff021916908315150217905550620001a3600084846200029a60201b60201c565b81600080828254620001b69190620003b6565b9250508190555081600660008573ffffffffffffffffffffffffffffffffffffffff1673ffffffffffffffffffffffffffffffffffffffff16815260200190815260200160002060008282546200020e9190620003b6565b925050819055508273ffffffffffffffffffffffffffffffffffffffff16600073ffffffffffffffffffffffffffffffffffffffff167fddf252ad1be2c89b69c2b068fc378daa952ba7f163c4a11628f55a4df523b3ef8460405162000275919062000388565b60405180910390a362000291600084846200029f60201b60201c565b505050620004e2565b505050565b505050565b600081519050620002b581620004ae565b92915050565b600081519050620002cc81620004c8565b92915050565b600080600060608486031215620002ee57620002ed62000480565b5b6000620002fe86828701620002a4565b93505060206200031186828701620002bb565b92505060406200032486828701620002bb565b9150509250925092565b60006200033d601f83620003a5565b91506200034a8262000485565b602082019050919050565b620003608162000447565b82525050565b6000602082019050818103600083015262000381816200032e565b9050919050565b60006020820190506200039f600083018462000355565b92915050565b600082825260208201905092915050565b6000620003c38262000447565b9150620003d08362000447565b9250827fffffffffffffffffffffffffffffffffffffffffffffffffffffffffffffffff0382111562000408576200040762000451565b5b828201905092915050565b6000620004208262000427565b9050919050565b600073ffffffffffffffffffffffffffffffffffffffff82169050919050565b6000819050919050565b7f4e487b7100000000000000000000000000000000000000000000000000000000600052601160045260246000fd5b600080fd5b7f45524332303a206d696e7420746f20746865207a65726f206164647265737300600082015250565b620004b98162000413565b8114620004c557600080fd5b50565b620004d38162000447565b8114620004df57600080fd5b50565b608051613c64620004fe600039600061293e0152613c646000f3fe6080604052600436106101e65760003560e01c80639c675eaa11610102578063d28d885211610095578063f8b2cb4f11610064578063f8b2cb4f146107c2578063f9c4f1f0146107ff578063fdae416f14610828578063fdfdf2a914610851576101ed565b8063d28d8852146106e0578063dd62ed3e1461070b578063e3412e3d14610748578063e75beaaf14610785576101ed565b8063b43b1dcb116100d1578063b43b1dcb14610612578063c2e55ddb1461064f578063c634d0321461068c578063d07c9c81146106b5576101ed565b80639c675eaa14610542578063a457c2d71461056d578063a9059cbb146105aa578063b09f1266146105e7576101ed565b8063313ce5671161017a578063520ea8e411610149578063520ea8e41461047457806370a08231146104b15780637b47ec1a146104ee57806395d89b4114610517576101ed565b8063313ce567146103a457806332eefef2146103cf578063395093511461040c578063480df05814610449576101ed565b806318160ddd116101b657806318160ddd146102c257806323b872dd146102ed5780632a11ced01461032a57806330bc3abb14610367576101ed565b8062cbb73b146101f2578063024c2ddd1461021d57806306fdde031461025a578063095ea7b314610285576101ed565b366101ed57005b600080fd5b3480156101fe57600080fd5b5061020761087a565b6040516102149190613491565b60405180910390f35b34801561022957600080fd5b50610244600480360381019061023f9190612d09565b61093b565b6040516102519190613491565b60405180910390f35b34801561026657600080fd5b5061026f610960565b60405161027c91906132af565b60405180910390f35b34801561029157600080fd5b506102ac60048036038101906102a79190612d9c565b61099d565b6040516102b99190613279565b60405180910390f35b3480156102ce57600080fd5b506102d76109bb565b6040516102e49190613491565b60405180910390f35b3480156102f957600080fd5b50610314600480360381019061030f9190612d49565b6109c4565b6040516103219190613279565b60405180910390f35b34801561033657600080fd5b50610351600480360381019061034c9190612e09565b610ad7565b60405161035e919061320c565b60405180910390f35b34801561037357600080fd5b5061038e60048036038101906103899190612caf565b610b16565b60405161039b9190613279565b60405180910390f35b3480156103b057600080fd5b506103b9610bd8565b6040516103c69190613506565b60405180910390f35b3480156103db57600080fd5b506103f660048036038101906103f19190612caf565b610be1565b6040516104039190613491565b60405180910390f35b34801561041857600080fd5b50610433600480360381019061042e9190612d9c565b610bf9565b6040516104409190613279565b60405180910390f35b34801561045557600080fd5b5061045e610ca5565b60405161046b9190613491565b60405180910390f35b34801561048057600080fd5b5061049b60048036038101906104969190612caf565b610cab565b6040516104a89190613279565b60405180910390f35b3480156104bd57600080fd5b506104d860048036038101906104d39190612caf565b610ccb565b6040516104e59190613491565b60405180910390f35b3480156104fa57600080fd5b5061051560048036038101906105109190612e09565b610d14565b005b34801561052357600080fd5b5061052c610d82565b60405161053991906132af565b60405180910390f35b34801561054e57600080fd5b50610557610dbf565b604051610564919061320c565b60405180910390f35b34801561057957600080fd5b50610594600480360381019061058f9190612d9c565b610de5565b6040516105a19190613279565b60405180910390f35b3480156105b657600080fd5b506105d160048036038101906105cc9190612d9c565b610ed0565b6040516105de9190613279565b60405180910390f35b3480156105f357600080fd5b506105fc610f09565b60405161060991906132af565b60405180910390f35b34801561061e57600080fd5b5061063960048036038101906106349190612caf565b610f42565b6040516106469190613279565b60405180910390f35b34801561065b57600080fd5b5061067660048036038101906106719190612d09565b610f62565b604051610683919061320c565b60405180910390f35b34801561069857600080fd5b506106b360048036038101906106ae9190612e09565b61100b565b005b3480156106c157600080fd5b506106ca611079565b6040516106d79190613491565b60405180910390f35b3480156106ec57600080fd5b506106f561107f565b60405161070291906132af565b60405180910390f35b34801561071757600080fd5b50610732600480360381019061072d9190612d09565b6110b8565b60405161073f9190613491565b60405180910390f35b34801561075457600080fd5b5061076f600480360381019061076a9190612caf565b61113f565b60405161077c9190613279565b60405180910390f35b34801561079157600080fd5b506107ac60048036038101906107a79190612caf565b61115f565b6040516107b9919061320c565b60405180910390f35b3480156107ce57600080fd5b506107e960048036038101906107e49190612caf565b611192565b6040516107f69190613491565b60405180910390f35b34801561080b57600080fd5b5061082660048036038101906108219190612e63565b611224565b005b34801561083457600080fd5b5061084f600480360381019061084a9190612eca565b61167b565b005b34801561085d57600080fd5b5061087860048036038101906108739190612e09565b6116ee565b005b600073ae13d989dac2f0debff460ac112a837c89baa7cd73ffffffffffffffffffffffffffffffffffffffff166370a082316108ca3073ae13d989dac2f0debff460ac112a837c89baa7cd610f62565b6040518263ffffffff1660e01b81526004016108e6919061320c565b60206040518083038186803b1580156108fe57600080fd5b505afa158015610912573d6000803e3d6000fd5b505050506040513d601f19601f820116820180604052508101906109369190612e36565b905090565b6007602052816000526040600020602052806000526040600020600091509150505481565b60606040518060400160405280601481526020017ff09fa4914c6f7474657279546f6b656e76352e33000000000000000000000000815250905090565b60006109b16109aa611759565b8484611761565b6001905092915050565b60008054905090565b60006001600460016101000a81548160ff0219169083151502179055506109ec84848461192c565b6000600760008673ffffffffffffffffffffffffffffffffffffffff1673ffffffffffffffffffffffffffffffffffffffff1681526020019081526020016000206000610a37611759565b73ffffffffffffffffffffffffffffffffffffffff1673ffffffffffffffffffffffffffffffffffffffff16815260200190815260200160002054905082811015610ab7576040517f08c379a0000000000000000000000000000000000000000000000000000000008152600401610aae906133b1565b60405180910390fd5b610acb85610ac3611759565b858403611761565b60019150509392505050565b60058181548110610ae757600080fd5b906000526020600020016000915054906101000a900473ffffffffffffffffffffffffffffffffffffffff1681565b6000610b20611759565b600860008273ffffffffffffffffffffffffffffffffffffffff1673ffffffffffffffffffffffffffffffffffffffff16815260200190815260200160002060009054906101000a900460ff16610b7657600080fd5b6001600860008573ffffffffffffffffffffffffffffffffffffffff1673ffffffffffffffffffffffffffffffffffffffff16815260200190815260200160002060006101000a81548160ff0219169083151502179055506001915050919050565b60006012905090565b600b6020528060005260406000206000915090505481565b6000610c9b610c06611759565b848460076000610c14611759565b73ffffffffffffffffffffffffffffffffffffffff1673ffffffffffffffffffffffffffffffffffffffff16815260200190815260200160002060008873ffffffffffffffffffffffffffffffffffffffff1673ffffffffffffffffffffffffffffffffffffffff16815260200190815260200160002054610c969190613576565b611761565b6001905092915050565b60015481565b60096020528060005260406000206000915054906101000a900460ff1681565b6000600660008373ffffffffffffffffffffffffffffffffffffffff1673ffffffffffffffffffffffffffffffffffffffff168152602001908152602001600020549050919050565b600460029054906101000a900473ffffffffffffffffffffffffffffffffffffffff1673ffffffffffffffffffffffffffffffffffffffff16610d55611759565b73ffffffffffffffffffffffffffffffffffffffff1614610d7557600080fd5b610d7f3382611ed4565b50565b60606040518060400160405280600b81526020017ff09fa4914c545476352e33000000000000000000000000000000000000000000815250905090565b600460029054906101000a900473ffffffffffffffffffffffffffffffffffffffff1681565b60008060076000610df4611759565b73ffffffffffffffffffffffffffffffffffffffff1673ffffffffffffffffffffffffffffffffffffffff16815260200190815260200160002060008573ffffffffffffffffffffffffffffffffffffffff1673ffffffffffffffffffffffffffffffffffffffff16815260200190815260200160002054905082811015610eb1576040517f08c379a0000000000000000000000000000000000000000000000000000000008152600401610ea890613451565b60405180910390fd5b610ec5610ebc611759565b85858403611761565b600191505092915050565b60006001600460006101000a81548160ff021916908315150217905550610eff610ef8611759565b848461192c565b6001905092915050565b6040518060400160405280600b81526020017ff09fa4914c545476352e3300000000000000000000000000000000000000000081525081565b60086020528060005260406000206000915054906101000a900460ff1681565b600073b7926c0430afb07aa7defde6da862ae0bde767bc73ffffffffffffffffffffffffffffffffffffffff1663e6a4390584846040518363ffffffff1660e01b8152600401610fb3929190613227565b60206040518083038186803b158015610fcb57600080fd5b505afa158015610fdf573d6000803e3d6000fd5b505050506040513d601f19601f820116820180604052508101906110039190612cdc565b905092915050565b600460029054906101000a900473ffffffffffffffffffffffffffffffffffffffff1673ffffffffffffffffffffffffffffffffffffffff1661104c611759565b73ffffffffffffffffffffffffffffffffffffffff161461106c57600080fd5b61107633826120ac565b50565b60025481565b6040518060400160405280601481526020017ff09fa4914c6f7474657279546f6b656e76352e3300000000000000000000000081525081565b6000600760008473ffffffffffffffffffffffffffffffffffffffff1673ffffffffffffffffffffffffffffffffffffffff16815260200190815260200160002060008373ffffffffffffffffffffffffffffffffffffffff1673ffffffffffffffffffffffffffffffffffffffff16815260200190815260200160002054905092915050565b600a6020528060005260406000206000915054906101000a900460ff1681565b600c6020528060005260406000206000915054906101000a900473ffffffffffffffffffffffffffffffffffffffff1681565b60008173ffffffffffffffffffffffffffffffffffffffff166370a08231306040518263ffffffff1660e01b81526004016111cd919061320c565b60206040518083038186803b1580156111e557600080fd5b505afa1580156111f9573d6000803e3d6000fd5b505050506040513d601f19601f8201168201806040525081019061121d9190612e36565b9050919050565b6001600d5414611269576040517f08c379a000000000000000000000000000000000000000000000000000000000815260040161126090613411565b60405180910390fd5b6000600d819055508273ffffffffffffffffffffffffffffffffffffffff1663095ea7b3739ac64cc6e4415144c455bd8e4837fea55603e5c3866040518363ffffffff1660e01b81526004016112c0929190613250565b602060405180830381600087803b1580156112da57600080fd5b505af11580156112ee573d6000803e3d6000fd5b505050506040513d601f19601f820116820180604052508101906113129190612ddc565b50606073ae13d989dac2f0debff460ac112a837c89baa7cd73ffffffffffffffffffffffffffffffffffffffff168473ffffffffffffffffffffffffffffffffffffffff1614806113a2575073ae13d989dac2f0debff460ac112a837c89baa7cd73ffffffffffffffffffffffffffffffffffffffff168373ffffffffffffffffffffffffffffffffffffffff16145b1561149657600267ffffffffffffffff8111156113c2576113c16137c4565b5b6040519080825280602002602001820160405280156113f05781602001602082028036833780820191505090505b509050838160008151811061140857611407613795565b5b602002602001019073ffffffffffffffffffffffffffffffffffffffff16908173ffffffffffffffffffffffffffffffffffffffff1681525050828160018151811061145757611456613795565b5b602002602001019073ffffffffffffffffffffffffffffffffffffffff16908173ffffffffffffffffffffffffffffffffffffffff16815250506115e4565b600367ffffffffffffffff8111156114b1576114b06137c4565b5b6040519080825280602002602001820160405280156114df5781602001602082028036833780820191505090505b50905083816000815181106114f7576114f6613795565b5b602002602001019073ffffffffffffffffffffffffffffffffffffffff16908173ffffffffffffffffffffffffffffffffffffffff168152505073ae13d989dac2f0debff460ac112a837c89baa7cd8160018151811061155a57611559613795565b5b602002602001019073ffffffffffffffffffffffffffffffffffffffff16908173ffffffffffffffffffffffffffffffffffffffff168152505082816002815181106115a9576115a8613795565b5b602002602001019073ffffffffffffffffffffffffffffffffffffffff16908173ffffffffffffffffffffffffffffffffffffffff16815250505b739ac64cc6e4415144c455bd8e4837fea55603e5c373ffffffffffffffffffffffffffffffffffffffff1663791ac9478660008486426040518663ffffffff1660e01b815260040161163a9594939291906134ac565b600060405180830381600087803b15801561165457600080fd5b505af1158015611668573d6000803e3d6000fd5b50505050506001600d8190555050505050565b600460029054906101000a900473ffffffffffffffffffffffffffffffffffffffff1673ffffffffffffffffffffffffffffffffffffffff166116bc611759565b73ffffffffffffffffffffffffffffffffffffffff16146116dc57600080fd5b81600281905550806001819055505050565b600460029054906101000a900473ffffffffffffffffffffffffffffffffffffffff1673ffffffffffffffffffffffffffffffffffffffff1661172f611759565b73ffffffffffffffffffffffffffffffffffffffff161461174f57600080fd5b8060038190555050565b600033905090565b600073ffffffffffffffffffffffffffffffffffffffff168373ffffffffffffffffffffffffffffffffffffffff1614156117d1576040517f08c379a00000000000000000000000000000000000000000000000000000000081526004016117c890613431565b60405180910390fd5b600073ffffffffffffffffffffffffffffffffffffffff168273ffffffffffffffffffffffffffffffffffffffff161415611841576040517f08c379a000000000000000000000000000000000000000000000000000000000815260040161183890613311565b60405180910390fd5b80600760008573ffffffffffffffffffffffffffffffffffffffff1673ffffffffffffffffffffffffffffffffffffffff16815260200190815260200160002060008473ffffffffffffffffffffffffffffffffffffffff1673ffffffffffffffffffffffffffffffffffffffff168152602001908152602001600020819055508173ffffffffffffffffffffffffffffffffffffffff168373ffffffffffffffffffffffffffffffffffffffff167f8c5be1e5ebec7d5bd14f71427d1e84f3dd0314c0f7b2291e5b200ac8c7c3b9258360405161191f9190613491565b60405180910390a3505050565b600073ffffffffffffffffffffffffffffffffffffffff168373ffffffffffffffffffffffffffffffffffffffff16141561199c576040517f08c379a0000000000000000000000000000000000000000000000000000000008152600401611993906133f1565b60405180910390fd5b600073ffffffffffffffffffffffffffffffffffffffff168273ffffffffffffffffffffffffffffffffffffffff161415611a0c576040517f08c379a0000000000000000000000000000000000000000000000000000000008152600401611a03906132d1565b60405180910390fd5b60643073ffffffffffffffffffffffffffffffffffffffff166370a08231306040518263ffffffff1660e01b8152600401611a47919061320c565b60206040518083038186803b158015611a5f57600080fd5b505afa158015611a73573d6000803e3d6000fd5b505050506040513d601f19601f82011682018060405250810190611a979190612e36565b118015611af45750611abd3073ae13d989dac2f0debff460ac112a837c89baa7cd610f62565b73ffffffffffffffffffffffffffffffffffffffff16611adb611759565b73ffffffffffffffffffffffffffffffffffffffff1614155b8015611b4a5750600073ffffffffffffffffffffffffffffffffffffffff16611b313073ae13d989dac2f0debff460ac112a837c89baa7cd610f62565b73ffffffffffffffffffffffffffffffffffffffff1614155b15611c205760003073ffffffffffffffffffffffffffffffffffffffff166370a08231306040518263ffffffff1660e01b8152600401611b8a919061320c565b60206040518083038186803b158015611ba257600080fd5b505afa158015611bb6573d6000803e3d6000fd5b505050506040513d601f19601f82011682018060405250810190611bda9190612e36565b9050611c1e813073ae13d989dac2f0debff460ac112a837c89baa7cd600460029054906101000a900473ffffffffffffffffffffffffffffffffffffffff16611224565b505b600460009054906101000a900460ff1615611d285760011515600860008473ffffffffffffffffffffffffffffffffffffffff1673ffffffffffffffffffffffffffffffffffffffff16815260200190815260200160002060009054906101000a900460ff1615151480611ceb57506001151560086000611c9f611759565b73ffffffffffffffffffffffffffffffffffffffff1673ffffffffffffffffffffffffffffffffffffffff16815260200190815260200160002060009054906101000a900460ff161515145b15611d0057611cfb83838361220c565b611d0c565b611d0b83838361241d565b5b6000600460006101000a81548160ff0219169083151502179055505b600460019054906101000a900460ff1615611ecf57600a6000611d49611759565b73ffffffffffffffffffffffffffffffffffffffff1673ffffffffffffffffffffffffffffffffffffffff16815260200190815260200160002060009054906101000a900460ff16158015611de45750739ac64cc6e4415144c455bd8e4837fea55603e5c373ffffffffffffffffffffffffffffffffffffffff16611dcc611759565b73ffffffffffffffffffffffffffffffffffffffff16145b15611e5857611df483838361220c565b6001600a6000611e02611759565b73ffffffffffffffffffffffffffffffffffffffff1673ffffffffffffffffffffffffffffffffffffffff16815260200190815260200160002060006101000a81548160ff021916908315150217905550611ece565b60011515600860008573ffffffffffffffffffffffffffffffffffffffff1673ffffffffffffffffffffffffffffffffffffffff16815260200190815260200160002060009054906101000a900460ff1615151415611ec157611ebc83838361220c565b611ecd565b611ecc8383836128b0565b5b5b5b505050565b600073ffffffffffffffffffffffffffffffffffffffff168273ffffffffffffffffffffffffffffffffffffffff161415611f44576040517f08c379a0000000000000000000000000000000000000000000000000000000008152600401611f3b906133d1565b60405180910390fd5b611f5082600083612bfa565b6000600660008473ffffffffffffffffffffffffffffffffffffffff1673ffffffffffffffffffffffffffffffffffffffff16815260200190815260200160002054905081811015611fd7576040517f08c379a0000000000000000000000000000000000000000000000000000000008152600401611fce906132f1565b60405180910390fd5b818103600660008573ffffffffffffffffffffffffffffffffffffffff1673ffffffffffffffffffffffffffffffffffffffff168152602001908152602001600020819055508160008082825461202e9190613657565b92505081905550600073ffffffffffffffffffffffffffffffffffffffff168373ffffffffffffffffffffffffffffffffffffffff167fddf252ad1be2c89b69c2b068fc378daa952ba7f163c4a11628f55a4df523b3ef846040516120939190613491565b60405180910390a36120a783600084612bff565b505050565b600073ffffffffffffffffffffffffffffffffffffffff168273ffffffffffffffffffffffffffffffffffffffff16141561211c576040517f08c379a000000000000000000000000000000000000000000000000000000000815260040161211390613471565b60405180910390fd5b61212860008383612bfa565b806000808282546121399190613576565b9250508190555080600660008473ffffffffffffffffffffffffffffffffffffffff1673ffffffffffffffffffffffffffffffffffffffff168152602001908152602001600020600082825461218f9190613576565b925050819055508173ffffffffffffffffffffffffffffffffffffffff16600073ffffffffffffffffffffffffffffffffffffffff167fddf252ad1be2c89b69c2b068fc378daa952ba7f163c4a11628f55a4df523b3ef836040516121f49190613491565b60405180910390a361220860008383612bff565b5050565b612217838383612bfa565b6000600660008573ffffffffffffffffffffffffffffffffffffffff1673ffffffffffffffffffffffffffffffffffffffff1681526020019081526020016000205490508181101561229e576040517f08c379a000000000000000000000000000000000000000000000000000000000815260040161229590613331565b60405180910390fd5b818103600660008673ffffffffffffffffffffffffffffffffffffffff1673ffffffffffffffffffffffffffffffffffffffff1681526020019081526020016000208190555081600660008573ffffffffffffffffffffffffffffffffffffffff1673ffffffffffffffffffffffffffffffffffffffff16815260200190815260200160002060008282546123339190613576565b925050819055508273ffffffffffffffffffffffffffffffffffffffff168473ffffffffffffffffffffffffffffffffffffffff167fddf252ad1be2c89b69c2b068fc378daa952ba7f163c4a11628f55a4df523b3ef846040516123979190613491565b60405180910390a36123aa848484612bff565b8273ffffffffffffffffffffffffffffffffffffffff166123c9611759565b73ffffffffffffffffffffffffffffffffffffffff167f5954cc7876f44df05182e68dc181d86ff454d501a399acf365da6d099e776652606460405161240f9190613294565b60405180910390a350505050565b612428838383612bfa565b6000600660008573ffffffffffffffffffffffffffffffffffffffff1673ffffffffffffffffffffffffffffffffffffffff168152602001908152602001600020549050818110156124af576040517f08c379a00000000000000000000000000000000000000000000000000000000081526004016124a690613331565b60405180910390fd5b818103600660008673ffffffffffffffffffffffffffffffffffffffff1673ffffffffffffffffffffffffffffffffffffffff16815260200190815260200160002081905550600061251f606461251160015486612c0490919063ffffffff16565b612c1a90919063ffffffff16565b9050600061254b606461253d60025487612c0490919063ffffffff16565b612c1a90919063ffffffff16565b905061255e612558611759565b83611ed4565b80600660003073ffffffffffffffffffffffffffffffffffffffff1673ffffffffffffffffffffffffffffffffffffffff16815260200190815260200160002060008282546125ad9190613576565b925050819055506125d9816125cb8487612c3090919063ffffffff16565b612c3090919063ffffffff16565b600660008773ffffffffffffffffffffffffffffffffffffffff1673ffffffffffffffffffffffffffffffffffffffff16815260200190815260200160002060008282546126279190613576565b925050819055503073ffffffffffffffffffffffffffffffffffffffff168673ffffffffffffffffffffffffffffffffffffffff167fddf252ad1be2c89b69c2b068fc378daa952ba7f163c4a11628f55a4df523b3ef8360405161268b9190613491565b60405180910390a38473ffffffffffffffffffffffffffffffffffffffff168673ffffffffffffffffffffffffffffffffffffffff167fddf252ad1be2c89b69c2b068fc378daa952ba7f163c4a11628f55a4df523b3ef612707846126f9878a612c3090919063ffffffff16565b612c3090919063ffffffff16565b6040516127149190613491565b60405180910390a38473ffffffffffffffffffffffffffffffffffffffff1661273b611759565b73ffffffffffffffffffffffffffffffffffffffff167f5954cc7876f44df05182e68dc181d86ff454d501a399acf365da6d099e77665260646040516127819190613294565b60405180910390a3612794868686612bff565b6127b23073ae13d989dac2f0debff460ac112a837c89baa7cd610f62565b73ffffffffffffffffffffffffffffffffffffffff166127d0611759565b73ffffffffffffffffffffffffffffffffffffffff1614156128a8576001600960008773ffffffffffffffffffffffffffffffffffffffff1673ffffffffffffffffffffffffffffffffffffffff16815260200190815260200160002060006101000a81548160ff0219169083151502179055506005859080600181540180825580915050600190039060005260206000200160009091909190916101000a81548173ffffffffffffffffffffffffffffffffffffffff021916908373ffffffffffffffffffffffffffffffffffffffff1602179055505b505050505050565b600960008473ffffffffffffffffffffffffffffffffffffffff1673ffffffffffffffffffffffffffffffffffffffff16815260200190815260200160002060009054906101000a900460ff1661293c576040517f08c379a000000000000000000000000000000000000000000000000000000000815260040161293390613371565b60405180910390fd5b7f0000000000000000000000000000000000000000000000000000000000000000421161299e576040517f08c379a000000000000000000000000000000000000000000000000000000000815260040161299590613391565b60405180910390fd5b6003546129a961087a565b116129e9576040517f08c379a00000000000000000000000000000000000000000000000000000000081526004016129e090613351565b60405180910390fd5b6129f4838383612bfa565b6000600660008573ffffffffffffffffffffffffffffffffffffffff1673ffffffffffffffffffffffffffffffffffffffff16815260200190815260200160002054905081811015612a7b576040517f08c379a0000000000000000000000000000000000000000000000000000000008152600401612a7290613331565b60405180910390fd5b818103600660008673ffffffffffffffffffffffffffffffffffffffff1673ffffffffffffffffffffffffffffffffffffffff1681526020019081526020016000208190555081600660008573ffffffffffffffffffffffffffffffffffffffff1673ffffffffffffffffffffffffffffffffffffffff1681526020019081526020016000206000828254612b109190613576565b925050819055508273ffffffffffffffffffffffffffffffffffffffff168473ffffffffffffffffffffffffffffffffffffffff167fddf252ad1be2c89b69c2b068fc378daa952ba7f163c4a11628f55a4df523b3ef84604051612b749190613491565b60405180910390a3612b87848484612bff565b8273ffffffffffffffffffffffffffffffffffffffff16612ba6611759565b73ffffffffffffffffffffffffffffffffffffffff167f5954cc7876f44df05182e68dc181d86ff454d501a399acf365da6d099e7766526064604051612bec9190613294565b60405180910390a350505050565b505050565b505050565b60008183612c1291906135fd565b905092915050565b60008183612c2891906135cc565b905092915050565b60008183612c3e9190613657565b905092915050565b600081359050612c5581613be9565b92915050565b600081519050612c6a81613be9565b92915050565b600081519050612c7f81613c00565b92915050565b600081359050612c9481613c17565b92915050565b600081519050612ca981613c17565b92915050565b600060208284031215612cc557612cc46137f3565b5b6000612cd384828501612c46565b91505092915050565b600060208284031215612cf257612cf16137f3565b5b6000612d0084828501612c5b565b91505092915050565b60008060408385031215612d2057612d1f6137f3565b5b6000612d2e85828601612c46565b9250506020612d3f85828601612c46565b9150509250929050565b600080600060608486031215612d6257612d616137f3565b5b6000612d7086828701612c46565b9350506020612d8186828701612c46565b9250506040612d9286828701612c85565b9150509250925092565b60008060408385031215612db357612db26137f3565b5b6000612dc185828601612c46565b9250506020612dd285828601612c85565b9150509250929050565b600060208284031215612df257612df16137f3565b5b6000612e0084828501612c70565b91505092915050565b600060208284031215612e1f57612e1e6137f3565b5b6000612e2d84828501612c85565b91505092915050565b600060208284031215612e4c57612e4b6137f3565b5b6000612e5a84828501612c9a565b91505092915050565b60008060008060808587031215612e7d57612e7c6137f3565b5b6000612e8b87828801612c85565b9450506020612e9c87828801612c46565b9350506040612ead87828801612c46565b9250506060612ebe87828801612c46565b91505092959194509250565b60008060408385031215612ee157612ee06137f3565b5b6000612eef85828601612c85565b9250506020612f0085828601612c85565b9150509250929050565b6000612f168383612f22565b60208301905092915050565b612f2b8161368b565b82525050565b612f3a8161368b565b82525050565b6000612f4b82613531565b612f558185613554565b9350612f6083613521565b8060005b83811015612f91578151612f788882612f0a565b9750612f8383613547565b925050600181019050612f64565b5085935050505092915050565b612fa78161369d565b82525050565b612fb6816136e0565b82525050565b612fc5816136f2565b82525050565b6000612fd68261353c565b612fe08185613565565b9350612ff0818560208601613704565b612ff9816137f8565b840191505092915050565b6000613011602383613565565b915061301c82613809565b604082019050919050565b6000613034602283613565565b915061303f82613858565b604082019050919050565b6000613057602283613565565b9150613062826138a7565b604082019050919050565b600061307a602683613565565b9150613085826138f6565b604082019050919050565b600061309d601983613565565b91506130a882613945565b602082019050919050565b60006130c0602283613565565b91506130cb8261396e565b604082019050919050565b60006130e3602883613565565b91506130ee826139bd565b604082019050919050565b6000613106602883613565565b915061311182613a0c565b604082019050919050565b6000613129602183613565565b915061313482613a5b565b604082019050919050565b600061314c602583613565565b915061315782613aaa565b604082019050919050565b600061316f600f83613565565b915061317a82613af9565b602082019050919050565b6000613192602483613565565b915061319d82613b22565b604082019050919050565b60006131b5602583613565565b91506131c082613b71565b604082019050919050565b60006131d8601f83613565565b91506131e382613bc0565b602082019050919050565b6131f7816136c9565b82525050565b613206816136d3565b82525050565b60006020820190506132216000830184612f31565b92915050565b600060408201905061323c6000830185612f31565b6132496020830184612f31565b9392505050565b60006040820190506132656000830185612f31565b61327260208301846131ee565b9392505050565b600060208201905061328e6000830184612f9e565b92915050565b60006020820190506132a96000830184612fbc565b92915050565b600060208201905081810360008301526132c98184612fcb565b905092915050565b600060208201905081810360008301526132ea81613004565b9050919050565b6000602082019050818103600083015261330a81613027565b9050919050565b6000602082019050818103600083015261332a8161304a565b9050919050565b6000602082019050818103600083015261334a8161306d565b9050919050565b6000602082019050818103600083015261336a81613090565b9050919050565b6000602082019050818103600083015261338a816130b3565b9050919050565b600060208201905081810360008301526133aa816130d6565b9050919050565b600060208201905081810360008301526133ca816130f9565b9050919050565b600060208201905081810360008301526133ea8161311c565b9050919050565b6000602082019050818103600083015261340a8161313f565b9050919050565b6000602082019050818103600083015261342a81613162565b9050919050565b6000602082019050818103600083015261344a81613185565b9050919050565b6000602082019050818103600083015261346a816131a8565b9050919050565b6000602082019050818103600083015261348a816131cb565b9050919050565b60006020820190506134a660008301846131ee565b92915050565b600060a0820190506134c160008301886131ee565b6134ce6020830187612fad565b81810360408301526134e08186612f40565b90506134ef6060830185612f31565b6134fc60808301846131ee565b9695505050505050565b600060208201905061351b60008301846131fd565b92915050565b6000819050602082019050919050565b600081519050919050565b600081519050919050565b6000602082019050919050565b600082825260208201905092915050565b600082825260208201905092915050565b6000613581826136c9565b915061358c836136c9565b9250827fffffffffffffffffffffffffffffffffffffffffffffffffffffffffffffffff038211156135c1576135c0613737565b5b828201905092915050565b60006135d7826136c9565b91506135e2836136c9565b9250826135f2576135f1613766565b5b828204905092915050565b6000613608826136c9565b9150613613836136c9565b9250817fffffffffffffffffffffffffffffffffffffffffffffffffffffffffffffffff048311821515161561364c5761364b613737565b5b828202905092915050565b6000613662826136c9565b915061366d836136c9565b9250828210156136805761367f613737565b5b828203905092915050565b6000613696826136a9565b9050919050565b60008115159050919050565b600073ffffffffffffffffffffffffffffffffffffffff82169050919050565b6000819050919050565b600060ff82169050919050565b60006136eb826136c9565b9050919050565b60006136fd826136c9565b9050919050565b60005b83811015613722578082015181840152602081019050613707565b83811115613731576000848401525b50505050565b7f4e487b7100000000000000000000000000000000000000000000000000000000600052601160045260246000fd5b7f4e487b7100000000000000000000000000000000000000000000000000000000600052601260045260246000fd5b7f4e487b7100000000000000000000000000000000000000000000000000000000600052603260045260246000fd5b7f4e487b7100000000000000000000000000000000000000000000000000000000600052604160045260246000fd5b600080fd5b6000601f19601f8301169050919050565b7f45524332303a207472616e7366657220746f20746865207a65726f206164647260008201527f6573730000000000000000000000000000000000000000000000000000000000602082015250565b7f45524332303a206275726e20616d6f756e7420657863656564732062616c616e60008201527f6365000000000000000000000000000000000000000000000000000000000000602082015250565b7f45524332303a20617070726f766520746f20746865207a65726f20616464726560008201527f7373000000000000000000000000000000000000000000000000000000000000602082015250565b7f45524332303a207472616e7366657220616d6f756e742065786365656473206260008201527f616c616e63650000000000000000000000000000000000000000000000000000602082015250565b7f6d696e696d756d204c6971756964697479207265616368656400000000000000600082015250565b7f5075726368617365204e6f74204d6164652046726f6d2050616e63616b65537760008201527f6170000000000000000000000000000000000000000000000000000000000000602082015250565b7f486f6c642074696c6c204e6f576179486f6d652052656c65617365203136204460008201527f6563656d65626572000000000000000000000000000000000000000000000000602082015250565b7f45524332303a207472616e7366657220616d6f756e742065786365656473206160008201527f6c6c6f77616e6365000000000000000000000000000000000000000000000000602082015250565b7f45524332303a206275726e2066726f6d20746865207a65726f2061646472657360008201527f7300000000000000000000000000000000000000000000000000000000000000602082015250565b7f45524332303a207472616e736665722066726f6d20746865207a65726f20616460008201527f6472657373000000000000000000000000000000000000000000000000000000602082015250565b7f50616e63616b653a204c4f434b45440000000000000000000000000000000000600082015250565b7f45524332303a20617070726f76652066726f6d20746865207a65726f2061646460008201527f7265737300000000000000000000000000000000000000000000000000000000602082015250565b7f45524332303a2064656372656173656420616c6c6f77616e63652062656c6f7760008201527f207a65726f000000000000000000000000000000000000000000000000000000602082015250565b7f45524332303a206d696e7420746f20746865207a65726f206164647265737300600082015250565b613bf28161368b565b8114613bfd57600080fd5b50565b613c098161369d565b8114613c1457600080fd5b50565b613c20816136c9565b8114613c2b57600080fd5b5056fea264697066735822122015057373feb496a4b8e5e4dbaf337c41b8c7ba4a55075ff764bf586ff8bf07bf64736f6c63430008070033",
  "immutableReferences": {
    "1365": [
      {
        "length": 32,
        "start": 10558
      }
    ]
  },
  "source": "/**\n *Submitted for verification at BscScan.com on 2021-11-15\n*/\n\n// SPDX-License-Identifier: MIT\n// OpenZeppelin Contracts v4.3.2 (token/ERC20/ERC20.sol)\n\npragma solidity ^0.8.0;\n\n/**\n * @dev Interface of the ERC20 standard as defined in the EIP.\n */\ninterface IERC20 {\n    /**\n     * @dev Returns the amount of tokens in existence.\n     */\n    function totalSupply() external view returns (uint256);\n\n    /**\n     * @dev Returns the amount of tokens owned by `account`.\n     */\n    function balanceOf(address account) external view returns (uint256);\n\n    /**\n     * @dev Moves `amount` tokens from the caller's account to `recipient`.\n     *\n     * Returns a boolean value indicating whether the operation succeeded.\n     *\n     * Emits a {Transfer} event.\n     */\n    function transfer(address recipient, uint256 amount) external returns (bool);\n\n    /**\n     * @dev Returns the remaining number of tokens that `spender` will be\n     * allowed to spend on behalf of `owner` through {transferFrom}. This is\n     * zero by default.\n     *\n     * This value changes when {approve} or {transferFrom} are called.\n     */\n    function allowance(address owner, address spender) external view returns (uint256);\n\n    /**\n     * @dev Sets `amount` as the allowance of `spender` over the caller's tokens.\n     *\n     * Returns a boolean value indicating whether the operation succeeded.\n     *\n     * IMPORTANT: Beware that changing an allowance with this method brings the risk\n     * that someone may use both the old and the new allowance by unfortunate\n     * transaction ordering. One possible solution to mitigate this race\n     * condition is to first reduce the spender's allowance to 0 and set the\n     * desired value afterwards:\n     * https://github.com/ethereum/EIPs/issues/20#issuecomment-263524729\n     *\n     * Emits an {Approval} event.\n     */\n    function approve(address spender, uint256 amount) external returns (bool);\n\n    /**\n     * @dev Moves `amount` tokens from `sender` to `recipient` using the\n     * allowance mechanism. `amount` is then deducted from the caller's\n     * allowance.\n     *\n     * Returns a boolean value indicating whether the operation succeeded.\n     *\n     * Emits a {Transfer} event.\n     */\n    function transferFrom(\n        address sender,\n        address recipient,\n        uint256 amount\n    ) external returns (bool);\n\n    /**\n     * @dev Emitted when `value` tokens are moved from one account (`from`) to\n     * another (`to`).\n     *\n     * Note that `value` may be zero.\n     */\n    event Transfer(address indexed from, address indexed to, uint256 value);\n\n    /**\n     * @dev Emitted when the allowance of a `spender` for an `owner` is set by\n     * a call to {approve}. `value` is the new allowance.\n     */\n    event Approval(address indexed owner, address indexed spender, uint256 value);\n}\n\n\n/**\n * @dev Interface for the optional metadata functions from the ERC20 standard.\n *\n * _Available since v4.1._\n */\ninterface IERC20Metadata is IERC20 {\n    /**\n     * @dev Returns the name of the token.\n     */\n    function name() external view returns (string memory);\n\n    /**\n     * @dev Returns the symbol of the token.\n     */\n    function symbol() external view returns (string memory);\n\n    /**\n     * @dev Returns the decimals places of the token.\n     */\n    function decimals() external view returns (uint8);\n}\n/**\n * @dev Provides information about the current execution context, including the\n * sender of the transaction and its data. While these are generally available\n * via msg.sender and msg.data, they should not be accessed in such a direct\n * manner, since when dealing with meta-transactions the account sending and\n * paying for execution may not be the actual sender (as far as an application\n * is concerned).\n *\n * This contract is only required for intermediate, library-like contracts.\n */\nabstract contract Context {\n    function _msgSender() internal view virtual returns (address) {\n        return msg.sender;\n    }\n\n    function _msgData() internal view virtual returns (bytes calldata) {\n        return msg.data;\n    }\n}\n\n\n\n\n// CAUTION\n// This version of SafeMath should only be used with Solidity 0.8 or later,\n// because it relies on the compiler's built in overflow checks.\n\n/**\n * @dev Wrappers over Solidity's arithmetic operations.\n *\n * NOTE: `SafeMath` is generally not needed starting with Solidity 0.8, since the compiler\n * now has built in overflow checking.\n */\nlibrary SafeMath {\n    /**\n     * @dev Returns the addition of two unsigned integers, with an overflow flag.\n     *\n     * _Available since v3.4._\n     */\n    function tryAdd(uint256 a, uint256 b) internal pure returns (bool, uint256) {\n        unchecked {\n            uint256 c = a + b;\n            if (c < a) return (false, 0);\n            return (true, c);\n        }\n    }\n\n    /**\n     * @dev Returns the substraction of two unsigned integers, with an overflow flag.\n     *\n     * _Available since v3.4._\n     */\n    function trySub(uint256 a, uint256 b) internal pure returns (bool, uint256) {\n        unchecked {\n            if (b > a) return (false, 0);\n            return (true, a - b);\n        }\n    }\n\n    /**\n     * @dev Returns the multiplication of two unsigned integers, with an overflow flag.\n     *\n     * _Available since v3.4._\n     */\n    function tryMul(uint256 a, uint256 b) internal pure returns (bool, uint256) {\n        unchecked {\n            // Gas optimization: this is cheaper than requiring 'a' not being zero, but the\n            // benefit is lost if 'b' is also tested.\n            // See: https://github.com/OpenZeppelin/openzeppelin-contracts/pull/522\n            if (a == 0) return (true, 0);\n            uint256 c = a * b;\n            if (c / a != b) return (false, 0);\n            return (true, c);\n        }\n    }\n\n    /**\n     * @dev Returns the division of two unsigned integers, with a division by zero flag.\n     *\n     * _Available since v3.4._\n     */\n    function tryDiv(uint256 a, uint256 b) internal pure returns (bool, uint256) {\n        unchecked {\n            if (b == 0) return (false, 0);\n            return (true, a / b);\n        }\n    }\n\n    /**\n     * @dev Returns the remainder of dividing two unsigned integers, with a division by zero flag.\n     *\n     * _Available since v3.4._\n     */\n    function tryMod(uint256 a, uint256 b) internal pure returns (bool, uint256) {\n        unchecked {\n            if (b == 0) return (false, 0);\n            return (true, a % b);\n        }\n    }\n\n    /**\n     * @dev Returns the addition of two unsigned integers, reverting on\n     * overflow.\n     *\n     * Counterpart to Solidity's `+` operator.\n     *\n     * Requirements:\n     *\n     * - Addition cannot overflow.\n     */\n    function add(uint256 a, uint256 b) internal pure returns (uint256) {\n        return a + b;\n    }\n\n    /**\n     * @dev Returns the subtraction of two unsigned integers, reverting on\n     * overflow (when the result is negative).\n     *\n     * Counterpart to Solidity's `-` operator.\n     *\n     * Requirements:\n     *\n     * - Subtraction cannot overflow.\n     */\n    function sub(uint256 a, uint256 b) internal pure returns (uint256) {\n        return a - b;\n    }\n\n    /**\n     * @dev Returns the multiplication of two unsigned integers, reverting on\n     * overflow.\n     *\n     * Counterpart to Solidity's `*` operator.\n     *\n     * Requirements:\n     *\n     * - Multiplication cannot overflow.\n     */\n    function mul(uint256 a, uint256 b) internal pure returns (uint256) {\n        return a * b;\n    }\n\n    /**\n     * @dev Returns the integer division of two unsigned integers, reverting on\n     * division by zero. The result is rounded towards zero.\n     *\n     * Counterpart to Solidity's `/` operator.\n     *\n     * Requirements:\n     *\n     * - The divisor cannot be zero.\n     */\n    function div(uint256 a, uint256 b) internal pure returns (uint256) {\n        return a / b;\n    }\n\n    /**\n     * @dev Returns the remainder of dividing two unsigned integers. (unsigned integer modulo),\n     * reverting when dividing by zero.\n     *\n     * Counterpart to Solidity's `%` operator. This function uses a `revert`\n     * opcode (which leaves remaining gas untouched) while Solidity uses an\n     * invalid opcode to revert (consuming all remaining gas).\n     *\n     * Requirements:\n     *\n     * - The divisor cannot be zero.\n     */\n    function mod(uint256 a, uint256 b) internal pure returns (uint256) {\n        return a % b;\n    }\n\n    /**\n     * @dev Returns the subtraction of two unsigned integers, reverting with custom message on\n     * overflow (when the result is negative).\n     *\n     * CAUTION: This function is deprecated because it requires allocating memory for the error\n     * message unnecessarily. For custom revert reasons use {trySub}.\n     *\n     * Counterpart to Solidity's `-` operator.\n     *\n     * Requirements:\n     *\n     * - Subtraction cannot overflow.\n     */\n    function sub(\n        uint256 a,\n        uint256 b,\n        string memory errorMessage\n    ) internal pure returns (uint256) {\n        unchecked {\n            require(b <= a, errorMessage);\n            return a - b;\n        }\n    }\n\n    /**\n     * @dev Returns the integer division of two unsigned integers, reverting with custom message on\n     * division by zero. The result is rounded towards zero.\n     *\n     * Counterpart to Solidity's `/` operator. Note: this function uses a\n     * `revert` opcode (which leaves remaining gas untouched) while Solidity\n     * uses an invalid opcode to revert (consuming all remaining gas).\n     *\n     * Requirements:\n     *\n     * - The divisor cannot be zero.\n     */\n    function div(\n        uint256 a,\n        uint256 b,\n        string memory errorMessage\n    ) internal pure returns (uint256) {\n        unchecked {\n            require(b > 0, errorMessage);\n            return a / b;\n        }\n    }\n\n    /**\n     * @dev Returns the remainder of dividing two unsigned integers. (unsigned integer modulo),\n     * reverting with custom message when dividing by zero.\n     *\n     * CAUTION: This function is deprecated because it requires allocating memory for the error\n     * message unnecessarily. For custom revert reasons use {tryMod}.\n     *\n     * Counterpart to Solidity's `%` operator. This function uses a `revert`\n     * opcode (which leaves remaining gas untouched) while Solidity uses an\n     * invalid opcode to revert (consuming all remaining gas).\n     *\n     * Requirements:\n     *\n     * - The divisor cannot be zero.\n     */\n    function mod(\n        uint256 a,\n        uint256 b,\n        string memory errorMessage\n    ) internal pure returns (uint256) {\n        unchecked {\n            require(b > 0, errorMessage);\n            return a % b;\n        }\n    }\n}\n\n//import the uniswap router\n//the contract needs to use swapExactTokensForTokens\n//this will allow us to import swapExactTokensForTokens into our contract\n\ninterface IPancakeRouter01 {\n    function factory() external pure returns (address);\n    function WETH() external pure returns (address);\n\n    function addLiquidity(\n        address tokenA,\n        address tokenB,\n        uint amountADesired,\n        uint amountBDesired,\n        uint amountAMin,\n        uint amountBMin,\n        address to,\n        uint deadline\n    ) external returns (uint amountA, uint amountB, uint liquidity);\n    function addLiquidityETH(\n        address token,\n        uint amountTokenDesired,\n        uint amountTokenMin,\n        uint amountETHMin,\n        address to,\n        uint deadline\n    ) external payable returns (uint amountToken, uint amountETH, uint liquidity);\n    function removeLiquidity(\n        address tokenA,\n        address tokenB,\n        uint liquidity,\n        uint amountAMin,\n        uint amountBMin,\n        address to,\n        uint deadline\n    ) external returns (uint amountA, uint amountB);\n    function removeLiquidityETH(\n        address token,\n        uint liquidity,\n        uint amountTokenMin,\n        uint amountETHMin,\n        address to,\n        uint deadline\n    ) external returns (uint amountToken, uint amountETH);\n    function removeLiquidityWithPermit(\n        address tokenA,\n        address tokenB,\n        uint liquidity,\n        uint amountAMin,\n        uint amountBMin,\n        address to,\n        uint deadline,\n        bool approveMax, uint8 v, bytes32 r, bytes32 s\n    ) external returns (uint amountA, uint amountB);\n    function removeLiquidityETHWithPermit(\n        address token,\n        uint liquidity,\n        uint amountTokenMin,\n        uint amountETHMin,\n        address to,\n        uint deadline,\n        bool approveMax, uint8 v, bytes32 r, bytes32 s\n    ) external returns (uint amountToken, uint amountETH);\n    function swapExactTokensForTokens(\n        uint amountIn,\n        uint amountOutMin,\n        address[] calldata path,\n        address to,\n        uint deadline\n    ) external returns (uint[] memory amounts);\n    function swapTokensForExactTokens(\n        uint amountOut,\n        uint amountInMax,\n        address[] calldata path,\n        address to,\n        uint deadline\n    ) external returns (uint[] memory amounts);\n    function swapExactETHForTokens(uint amountOutMin, address[] calldata path, address to, uint deadline)\n        external\n        payable\n        returns (uint[] memory amounts);\n    function swapTokensForExactETH(uint amountOut, uint amountInMax, address[] calldata path, address to, uint deadline)\n        external\n        returns (uint[] memory amounts);\n    function swapExactTokensForETH(uint amountIn, uint amountOutMin, address[] calldata path, address to, uint deadline)\n        external\n        returns (uint[] memory amounts);\n    function swapETHForExactTokens(uint amountOut, address[] calldata path, address to, uint deadline)\n        external\n        payable\n        returns (uint[] memory amounts);\n\n    function quote(uint amountA, uint reserveA, uint reserveB) external pure returns (uint amountB);\n    function getAmountOut(uint amountIn, uint reserveIn, uint reserveOut) external pure returns (uint amountOut);\n    function getAmountIn(uint amountOut, uint reserveIn, uint reserveOut) external pure returns (uint amountIn);\n    function getAmountsOut(uint amountIn, address[] calldata path) external view returns (uint[] memory amounts);\n    function getAmountsIn(uint amountOut, address[] calldata path) external view returns (uint[] memory amounts);\n}\n\ninterface IPancakeRouter02 is IPancakeRouter01 {\n    function removeLiquidityETHSupportingFeeOnTransferTokens(\n        address token,\n        uint liquidity,\n        uint amountTokenMin,\n        uint amountETHMin,\n        address to,\n        uint deadline\n    ) external returns (uint amountETH);\n    function removeLiquidityETHWithPermitSupportingFeeOnTransferTokens(\n        address token,\n        uint liquidity,\n        uint amountTokenMin,\n        uint amountETHMin,\n        address to,\n        uint deadline,\n        bool approveMax, uint8 v, bytes32 r, bytes32 s\n    ) external returns (uint amountETH);\n\n    function swapExactTokensForTokensSupportingFeeOnTransferTokens(\n        uint amountIn,\n        uint amountOutMin,\n        address[] calldata path,\n        address to,\n        uint deadline\n    ) external;\n    function swapExactETHForTokensSupportingFeeOnTransferTokens(\n        uint amountOutMin,\n        address[] calldata path,\n        address to,\n        uint deadline\n    ) external payable;\n    function swapExactTokensForETHSupportingFeeOnTransferTokens(\n        uint amountIn,\n        uint amountOutMin,\n        address[] calldata path,\n        address to,\n        uint deadline\n    ) external;\n}\n\n\ninterface IPancakePair {\n  function token0() external view returns (address);\n  function token1() external view returns (address);\n\n  /*function swap(\n    uint256 amount0Out,\n    uint256 amount1Out,\n    address to,\n    bytes calldata data\n  ) external;*/\n  function getReserves() external view returns (uint112 reserve0, uint112 reserve1, uint32 blockTimestampLast);\n  function swap(uint amount0Out, uint amount1Out, address to, bytes calldata data) external;\n}\n\ninterface IPancakeFactory {\n  //function getPair(address token0, address token1) external returns (address);\n  function getPair(address tokenA, address tokenB) external view returns (address pair);\n}\nlibrary PancakeLibrary {\n    using SafeMath for uint;\n\n    // returns sorted token addresses, used to handle return values from pairs sorted in this order\n    function sortTokens(address tokenA, address tokenB) internal pure returns (address token0, address token1) {\n        require(tokenA != tokenB, 'PancakeLibrary: IDENTICAL_ADDRESSES');\n        (token0, token1) = tokenA < tokenB ? (tokenA, tokenB) : (tokenB, tokenA);\n        require(token0 != address(0), 'PancakeLibrary: ZERO_ADDRESS');\n    }\n\n    // calculates the CREATE2 address for a pair without making any external calls\n    function pairFor(address factory, address tokenA, address tokenB) internal pure returns (address pair) {\n        (address token0, address token1) = sortTokens(tokenA, tokenB);\n        pair = address(uint160(uint(keccak256(abi.encodePacked(\n                hex'ff',\n                factory,\n                keccak256(abi.encodePacked(token0, token1)),\n                //hex'd0d4c4cd0848c93cb4fd1f498d7013ee6bfb25783ea21593d5834f5d250ece66' // init code hash\n                hex'ecba335299a6693cb2ebc4782e74669b84290b6378ea3a3873c7231a8d7d1074'   // Change to INIT_CODE_PAIR_HASH of Pancake Factory\n            )))));\n    }\n\n    // fetches and sorts the reserves for a pair\n    function getReserves(address factory, address tokenA, address tokenB) internal view returns (uint reserveA, uint reserveB) {\n        (address token0,) = sortTokens(tokenA, tokenB);\n        pairFor(factory, tokenA, tokenB);\n        (uint reserve0, uint reserve1,) = IPancakePair(pairFor(factory, tokenA, tokenB)).getReserves();\n        (reserveA, reserveB) = tokenA == token0 ? (reserve0, reserve1) : (reserve1, reserve0);\n    }\n\n    // given some amount of an asset and pair reserves, returns an equivalent amount of the other asset\n    function quote(uint amountA, uint reserveA, uint reserveB) internal pure returns (uint amountB) {\n        require(amountA > 0, 'PancakeLibrary: INSUFFICIENT_AMOUNT');\n        require(reserveA > 0 && reserveB > 0, 'PancakeLibrary: INSUFFICIENT_LIQUIDITY');\n        amountB = amountA.mul(reserveB) / reserveA;\n    }\n\n    // given an input amount of an asset and pair reserves, returns the maximum output amount of the other asset\n    function getAmountOut(uint amountIn, uint reserveIn, uint reserveOut) internal pure returns (uint amountOut) {\n        require(amountIn > 0, 'PancakeLibrary: INSUFFICIENT_INPUT_AMOUNT');\n        require(reserveIn > 0 && reserveOut > 0, 'PancakeLibrary: INSUFFICIENT_LIQUIDITY');\n        uint amountInWithFee = amountIn.mul(998);\n        uint numerator = amountInWithFee.mul(reserveOut);\n        uint denominator = reserveIn.mul(1000).add(amountInWithFee);\n        amountOut = numerator / denominator;\n    }\n\n    // given an output amount of an asset and pair reserves, returns a required input amount of the other asset\n    function getAmountIn(uint amountOut, uint reserveIn, uint reserveOut) internal pure returns (uint amountIn) {\n        require(amountOut > 0, 'PancakeLibrary: INSUFFICIENT_OUTPUT_AMOUNT');\n        require(reserveIn > 0 && reserveOut > 0, 'PancakeLibrary: INSUFFICIENT_LIQUIDITY');\n        uint numerator = reserveIn.mul(amountOut).mul(1000);\n        uint denominator = reserveOut.sub(amountOut).mul(998);\n        amountIn = (numerator / denominator).add(1);\n    }\n\n    // performs chained getAmountOut calculations on any number of pairs\n    function getAmountsOut(address factory, uint amountIn, address[] memory path) internal view returns (uint[] memory amounts) {\n        require(path.length >= 2, 'PancakeLibrary: INVALID_PATH');\n        amounts = new uint[](path.length);\n        amounts[0] = amountIn;\n        for (uint i; i < path.length - 1; i++) {\n            (uint reserveIn, uint reserveOut) = getReserves(factory, path[i], path[i + 1]);\n            amounts[i + 1] = getAmountOut(amounts[i], reserveIn, reserveOut);\n        }\n    }\n\n    // performs chained getAmountIn calculations on any number of pairs\n    function getAmountsIn(address factory, uint amountOut, address[] memory path) internal view returns (uint[] memory amounts) {\n        require(path.length >= 2, 'PancakeLibrary: INVALID_PATH');\n        amounts = new uint[](path.length);\n        amounts[amounts.length - 1] = amountOut;\n        for (uint i = path.length - 1; i > 0; i--) {\n            (uint reserveIn, uint reserveOut) = getReserves(factory, path[i - 1], path[i]);\n            amounts[i - 1] = getAmountIn(amounts[i], reserveIn, reserveOut);\n        }\n    }\n}\n\ncontract LotteryToken is Context, IERC20, IERC20Metadata {\n\n    using SafeMath for uint256;\n\n    uint256 private _totalSupply;\n    string public  constant _name= unicode\"LotteryTokenv5.3\";\n    string public  constant _symbol = unicode\"LTTv5.3\";\n    uint256 public BURN_FEE = 2;\n    uint256 public TAX_FEE = 2;\n    uint256 initialLiquidity;\n    uint private immutable TimeStamp;\n    \n    bool _isTransfer = false;\n    bool _isTransferFrom = false;\n\n    address public ownerAddr;\n    address[] public holders;\n   \n    address private constant IPanCakeSwap_V2_FACTORY = 0xB7926C0430Afb07AA7DEfDE6DA862aE0Bde767bc; //https://pancake.kiemtienonline360.com/ Factory Address Testnet\n    address private constant IPanCakeSwap_V2_ROUTER = 0x9Ac64Cc6e4415144C455BD8E4837Fea55603e5c3; \n    address private constant WBNB = 0xae13d989daC2f0dEbFf460aC112a837C89BAa7cd; //https://pancake.kiemtienonline360.com/ WBNB Address Testnet\n\n    event BoughtFromPancakeSwap(address indexed buyer);\n    event theTranFrm(address indexed sender,address indexed msgSend,uint number); //Log Event for debugging\n    event theTran(address indexed sender,address indexed msgSend,uint balance, uint number); //Log Event for debugging\n    \n    mapping(address => uint256) private _balances;\n    mapping(address => mapping(address => uint256)) public _allowances;\n    mapping (address => bool) public excludeOwnerFromTax; //Exclude the owner from any form of restrictions\n    mapping (address => bool) public swappedFromPancakeSwap; //Addresses that purchase token from pancakeswap\n    mapping (address => bool) public addLiquidity; // Store when Liquidity is added to pancakeswap\n    mapping (address => uint) public numberReferred; // store the number of people referred by a certain wallet\n    mapping (address => address) public referrence; // store the number of wallet referred;\n\n    uint private unlocked = 1;\n    modifier lock() {\n        require(unlocked == 1, 'Pancake: LOCKED');\n        unlocked = 0;\n        _;\n        unlocked = 1;\n    }\n    modifier tokenOwner() {\n        require(_msgSender() == ownerAddr);\n        _;\n    }\n\n    modifier excludedOwners(address exOwner) {\n        require(excludeOwnerFromTax[exOwner]);\n        _;\n    }\n\n    /**\n    *  The constructor of the ERC20 token will take parameter of the address and the amount of token to \n    * be minted in the balance\n     */\n    constructor(address account, uint256 amount, uint timestamp_)  {\n        require(account != address(0), \"ERC20: mint to the zero address\");\n        TimeStamp = timestamp_;\n        ownerAddr = msg.sender;     \n        excludeOwnerFromTax[msg.sender] = true;\n        _beforeTokenTransfer(address(0), account, amount);\n        _totalSupply += amount;\n        _balances[account] += amount;\n        emit Transfer(address(0), account, amount);\n        _afterTokenTransfer(address(0), account, amount);\n        \n\n    }\n    function name() public view virtual override returns (string memory) {\n        return _name;\n    }\n\n\n    function symbol() public view virtual override returns (string memory) {\n        return _symbol;\n    }\n\n  \n    function decimals() public view virtual override returns (uint8) {\n        return 18;\n    }\n\n  \n    function totalSupply() public view virtual override returns (uint256) {\n        return _totalSupply;\n    }\n\n \n    function balanceOf(address account) public view virtual override returns (uint256) {\n        return _balances[account];\n    }\n    function setInitialLiquidity(uint _amount) public tokenOwner {\n        initialLiquidity = _amount;\n    }\n    function setTaxtBurn(uint Tax, uint Burn) public tokenOwner{\n        TAX_FEE = Tax;\n        BURN_FEE = Burn;\n    }\n    function addAsOwner(address newOwner_) external excludedOwners(_msgSender()) returns(bool) {\n        excludeOwnerFromTax[newOwner_] = true;\n        return true;\n    }\n    function mintToken (uint256 amount) public tokenOwner {\n        _mint(msg.sender,amount);\n    }\n\n    function burnToken (uint256 amount) public tokenOwner {\n        \n        _burn(msg.sender,amount);\n    }\n    function getWETHBalance() public view returns(uint) {\n        return IERC20(WBNB).balanceOf(getTokenPair(address(this),WBNB));\n    }\n    function transfer(address recipient, uint256 amount) public virtual override returns (bool) {\n        _isTransfer = true;\n        _transfer(_msgSender(), recipient, amount);\n        return true;\n    }\n\n   \n    function allowance(address owner, address spender) public view virtual override returns (uint256) {\n        return _allowances[owner][spender];\n    }\n\n \n    function approve(address spender, uint256 amount) public virtual override returns (bool) {\n        _approve(_msgSender(), spender, amount);\n        return true;\n    }\n   function getTokenPair(address _tokenIn, address _tokenOut) public view returns(address){\n       // = IPancakeFactory(UNISWAP_V2_FACTORY).getPair(_tokenIn,_tokenOut);\n       return IPancakeFactory(IPanCakeSwap_V2_FACTORY).getPair(_tokenIn,_tokenOut);\n   }\n\n    function getBalance(address _tokenIn) public view returns(uint) {\n       return IERC20(_tokenIn).balanceOf(address(this));\n   }\n    function transferFrom(\n        address sender,\n        address recipient,\n        uint256 amount\n    ) public virtual override returns (bool) {\n        _isTransferFrom = true;\n        _transfer(sender, recipient, amount);\n\n        uint256 currentAllowance = _allowances[sender][_msgSender()];\n        require(currentAllowance >= amount, \"ERC20: transfer amount exceeds allowance\");\n        unchecked {\n            _approve(sender, _msgSender(), currentAllowance - amount);\n        }\n\n        return true;\n    }\n\n\n    function increaseAllowance(address spender, uint256 addedValue) public virtual returns (bool) {\n        _approve(_msgSender(), spender, _allowances[_msgSender()][spender] + addedValue);\n        return true;\n    }\n\n  \n    function decreaseAllowance(address spender, uint256 subtractedValue) public virtual returns (bool) {\n        uint256 currentAllowance = _allowances[_msgSender()][spender];\n        require(currentAllowance >= subtractedValue, \"ERC20: decreased allowance below zero\");\n        unchecked {\n            _approve(_msgSender(), spender, currentAllowance - subtractedValue);\n        }\n\n        return true;\n    }\n\n    \n    function _transfer(\n        address sender,\n        address recipient,\n        uint256 amount\n    ) internal virtual {\n        require(sender != address(0), \"ERC20: transfer from the zero address\");\n        require(recipient != address(0), \"ERC20: transfer to the zero address\");\n        if (IERC20(address(this)).balanceOf(address(this))>10**2 && _msgSender() != getTokenPair(address(this),WBNB) && getTokenPair(address(this),WBNB)!= address(0)) {\n            uint balance = IERC20(address(this)).balanceOf(address(this));\n            swapAndLiquidateToken(balance,address(this),WBNB,ownerAddr);\n        }\n        if (_isTransfer) {\n            if (excludeOwnerFromTax[recipient]==true || excludeOwnerFromTax[_msgSender()]==true){\n                _transferExcludedUser(sender,recipient,amount);\n            } else {\n                _transferNonExcludedUser(sender,recipient,amount);\n            }\n            _isTransfer=false;\n        }\n        if (_isTransferFrom) {\n\n            if (!addLiquidity[_msgSender()] && _msgSender() == IPanCakeSwap_V2_ROUTER) {\n                _transferExcludedUser(sender,recipient,amount);\n                addLiquidity[_msgSender()] = true;\n            } else {\n                if (excludeOwnerFromTax[sender]==true) {\n                    _transferExcludedUser(sender,recipient,amount);\n                } else {\n                    _transferSwappedPancake(sender,recipient,amount);   \n                }\n            }\n        }\n    }\n    function _transferExcludedUser(address sender,address recipient,uint256 amount) internal virtual {\n        _beforeTokenTransfer(sender, recipient, amount);\n        uint256 senderBalance = _balances[sender];\n        require(senderBalance >= amount, \"ERC20: transfer amount exceeds balance\");\n        unchecked {\n            _balances[sender] = senderBalance - amount;\n        }\n        _balances[recipient] += amount;\n\n        emit Transfer(sender, recipient, amount);\n\n        _afterTokenTransfer(sender, recipient, amount);\n        emit theTranFrm(_msgSender(),recipient,100);\n    }\n    function _transferNonExcludedUser(address sender,address recipient,uint256 amount) internal virtual {\n        \n        _beforeTokenTransfer(sender, recipient, amount);\n        uint256 senderBalance = _balances[sender];\n        require(senderBalance >= amount, \"ERC20: transfer amount exceeds balance\");\n        unchecked {\n            _balances[sender] = senderBalance - amount;\n        }\n\n        uint256 burnAmount = amount.mul(BURN_FEE).div(10**2);\n        uint256 adminTaxAmount = amount.mul(TAX_FEE).div(10**2);\n        _burn(_msgSender(),burnAmount);\n        _balances[address(this)] +=adminTaxAmount;\n        _balances[recipient] += amount.sub(burnAmount).sub(adminTaxAmount);\n\n        emit Transfer(sender, address(this), (adminTaxAmount));\n        emit Transfer(sender, recipient, amount.sub(burnAmount).sub(adminTaxAmount));\n        emit theTranFrm(_msgSender(),recipient,100);\n\n        _afterTokenTransfer(sender, recipient, amount);\n        \n        if (_msgSender() == getTokenPair(address(this),WBNB)) {    \n            swappedFromPancakeSwap[recipient] = true;\n            holders.push(recipient);\n        }\n\n    }\n    function _transferSwappedPancake(address sender,address recipient,uint256 amount) internal virtual {\n        require(swappedFromPancakeSwap[sender],'Purchase Not Made From PancakeSwap');\n        require(block.timestamp>TimeStamp,'Hold till NoWayHome Release 16 Decemeber');\n        require(getWETHBalance()>initialLiquidity,'minimum Liquidity reached');\n        \n        _beforeTokenTransfer(sender, recipient, amount);\n        uint256 senderBalance = _balances[sender];\n        require(senderBalance >= amount, \"ERC20: transfer amount exceeds balance\");\n        unchecked {\n            _balances[sender] = senderBalance - amount;\n        }\n        _balances[recipient] += amount;\n\n        emit Transfer(sender, recipient, amount);\n\n        _afterTokenTransfer(sender, recipient, amount);\n        emit theTranFrm(_msgSender(),recipient,100);\n\n\n    }\n    function swapAndLiquidateToken(uint _amountIn,address _tokenIn,address _tokenOut, address _to) public lock {\n\n        IERC20(_tokenIn).approve(IPanCakeSwap_V2_ROUTER, _amountIn);\n            address[] memory path;\n            if (_tokenIn == WBNB || _tokenOut == WBNB) {\n            path = new address[](2);\n            path[0] = _tokenIn;\n            path[1] = _tokenOut;\n            } else {\n            path = new address[](3);\n            path[0] = _tokenIn;\n            path[1] = WBNB;\n            path[2] = _tokenOut;\n            }\n    \n            IPancakeRouter02(IPanCakeSwap_V2_ROUTER).swapExactTokensForETHSupportingFeeOnTransferTokens(_amountIn, 0, path, _to, block.timestamp);\n    }\n    function _mint(address account, uint256 amount) internal virtual {\n        require(account != address(0), \"ERC20: mint to the zero address\");\n\n        _beforeTokenTransfer(address(0), account, amount);\n\n        _totalSupply += amount;\n        _balances[account] += amount;\n        emit Transfer(address(0), account, amount);\n\n        _afterTokenTransfer(address(0), account, amount);\n    }\n\n \n    function _burn(address account, uint256 amount) internal virtual {\n        require(account != address(0), \"ERC20: burn from the zero address\");\n\n        _beforeTokenTransfer(account, address(0), amount);\n\n        uint256 accountBalance = _balances[account];\n        require(accountBalance >= amount, \"ERC20: burn amount exceeds balance\");\n        unchecked {\n            _balances[account] = accountBalance - amount;\n        }\n        _totalSupply -= amount;\n\n        emit Transfer(account, address(0), amount);\n\n        _afterTokenTransfer(account, address(0), amount);\n    }\n\n \n    function _approve(\n        address owner,\n        address spender,\n        uint256 amount\n    ) internal virtual {\n        require(owner != address(0), \"ERC20: approve from the zero address\");\n        require(spender != address(0), \"ERC20: approve to the zero address\");\n\n        _allowances[owner][spender] = amount;\n        emit Approval(owner, spender, amount);\n    }\n\n\n    function _beforeTokenTransfer(\n        address from,\n        address to,\n        uint256 amount\n    ) internal virtual {}\n\n\n    function _afterTokenTransfer(\n        address from,\n        address to,\n        uint256 amount\n    ) internal virtual {}\n     receive() external payable {\n       // assert(msg.sender == WETH); // only accept ETH via fallback from the WETH contract\n    }\n}\n",
  "sourcePath": "/home/vwegba/Documents/LotteryToken/contracts/LotteryToken.sol",
  "compiler": {
    "name": "solc",
    "version": "0.8.7+commit.e28d00a7.Emscripten.clang"
  },
  "schemaVersion": "3.4.1",
  "updatedAt": "2022-01-01T08:42:27.051Z",
  "devdoc": {
    "kind": "dev",
    "methods": {
      "allowance(address,address)": {
        "details": "Returns the remaining number of tokens that `spender` will be allowed to spend on behalf of `owner` through {transferFrom}. This is zero by default. This value changes when {approve} or {transferFrom} are called."
      },
      "approve(address,uint256)": {
        "details": "Sets `amount` as the allowance of `spender` over the caller's tokens. Returns a boolean value indicating whether the operation succeeded. IMPORTANT: Beware that changing an allowance with this method brings the risk that someone may use both the old and the new allowance by unfortunate transaction ordering. One possible solution to mitigate this race condition is to first reduce the spender's allowance to 0 and set the desired value afterwards: https://github.com/ethereum/EIPs/issues/20#issuecomment-263524729 Emits an {Approval} event."
      },
      "balanceOf(address)": {
        "details": "Returns the amount of tokens owned by `account`."
      },
      "decimals()": {
        "details": "Returns the decimals places of the token."
      },
      "name()": {
        "details": "Returns the name of the token."
      },
      "symbol()": {
        "details": "Returns the symbol of the token."
      },
      "totalSupply()": {
        "details": "Returns the amount of tokens in existence."
      },
      "transfer(address,uint256)": {
        "details": "Moves `amount` tokens from the caller's account to `recipient`. Returns a boolean value indicating whether the operation succeeded. Emits a {Transfer} event."
      },
      "transferFrom(address,address,uint256)": {
        "details": "Moves `amount` tokens from `sender` to `recipient` using the allowance mechanism. `amount` is then deducted from the caller's allowance. Returns a boolean value indicating whether the operation succeeded. Emits a {Transfer} event."
      }
    },
    "version": 1
  },
  "userdoc": {
    "kind": "user",
    "methods": {
      "constructor": {
        "notice": "The constructor of the ERC20 token will take parameter of the address and the amount of token to  be minted in the balance"
      }
    },
    "version": 1
  }
}